:020000040800F2
:10000000E0E9012069020008C5200008B71C0008CB
:10001000411F0008610C0008795F00080000000023
:10002000000000000000000000000000C55C0008A7
:10003000710F00080000000037060008153A00089C
:10004000830200088302000883020008830200087C
:10005000830200088302000883020008830200086C
:10006000830200088302000883020008830200085C
:10007000830200088302000883020008830200084C
:10008000830200088302000883020008830200083C
:10009000830200088302000883020008830200082C
:1000A000830200088302000883020008830200081C
:1000B000830200088302000883020008830200080C
:1000C00083020008830200088302000883020008FC
:1000D00083020008830200088302000883020008EC
:1000E00083020008830200088302000883020008DC
:1000F00083020008830200088302000883020008CC
:1001000083020008830200088302000883020008BB
:1001100083020008830200088302000883020008AB
:10012000830200088302000883020008830200089B
:1001300083020008F9120008830200088302000805
:10014000830200088302000883020008830200087B
:10015000830200088302000883020008830200086B
:10016000830200088302000883020008830200085B
:10017000830200088302000883020008830200084B
:10018000830200088302000800F002F800F05CF827
:100190000AA090E8000C82448344AAF10107DA45E2
:1001A00001D100F051F8AFF2090EBAE80F0013F0D8
:1001B000010F18BFFB1A43F00103184788D4000051
:1001C000A8D400000A444FF0000C10F8013B13F0D3
:1001D000070408BF10F8014B1D1108BF10F8015BA0
:1001E000641E05D010F8016B641E01F8016BF9D193
:1001F00013F0080F1EBF10F8014BAD1C0C1B09D1EA
:100200006D1E58BF01F801CBFAD505E014F8016B5B
:1002100001F8016B6D1EF9D59142D6D370470000ED
:100220000023002400250026103A28BF78C1FBD8FF
:10023000520728BF30C148BF0B6070471FB50DF093
:1002400068F81FBD10B510BD00F0A3F91146FFF707
:10025000F5FF07F0B7FE00F0C1F903B4FFF7F2FFB6
:1002600003BC00F0C5F90000094880470948004771
:10027000FEE7FEE7FEE7FEE7FEE7FEE7FEE7FEE756
:10028000FEE7FEE704480549054A064B70470000B3
:10029000C15D000889010008E0DF0120E0E90120DC
:1002A000E0E30120E0E3012072B6704762B67047D8
:1002B000EFF3108072B6704780F31088704730BF3C
:1002C000704720BF7047B0FA80F0704790FAA0F0F6
:1002D000B0FA80F0704790FAA0F0704740EA01034E
:1002E00010B59B070FD1042A0DD310C808C9121FDF
:1002F0009C42F8D020BA19BA884201D9012010BD19
:100300004FF0FF3010BD1AB1D30703D0521C07E0E5
:10031000002010BD10F8013B11F8014B1B1B07D149
:1003200010F8013B11F8014B1B1B01D1921EF1D1BA
:10033000184610BD40EA0103024630B59B0710D1B4
:100340004FF0013400E008C208C91D1B9D4315EAA7
:10035000C41FF8D013F0FF0102F8011B0DD01B0AD7
:10036000F8E711F8013B002B02F8013B05D011F82A
:10037000013B002B02F8013BF3D130BD032A40F2D0
:10038000308010F0030C00F0158011F8013BBCF137
:10039000020F624498BF11F801CB00F8013B38BF4F
:1003A00011F8013BA2F1040298BF00F801CB38BF5D
:1003B00000F8013B11F0030300F0B980083AC0F0E7
:1003C000088051F8043B083A51F804CBA0E8081023
:1003D000F5E7121D5CBF51F8043B40F8043BAFF356
:1003E0000080D20724BF11F8013B11F801CB48BFB0
:1003F00011F8012B24BF00F8013B00F801CB48BFE6
:1004000000F8012B704702F0FF0343EA032242EA9F
:10041000024200F002B84FF000020429C0F012803E
:1004200010F0030C00F01B80CCF1040CBCF1020FA7
:1004300018BF00F8012BA8BF20F8022BA1EB0C017C
:1004400000F00DB85FEAC17C24BF00F8012B00F872
:10045000012B48BF00F8012B70474FF0000200B598
:10046000134694469646203922BFA0E80C50A0E8D7
:100470000C50B1F12001BFF4F7AF090728BFA0E885
:100480000C5048BF0CC05DF804EB890028BF40F851
:10049000042B08BF704748BF20F8022B11F0804F93
:1004A00018BF00F8012B70474FF0013C50F8042BA7
:1004B00051F8043B9A4221D1A2EB0C03934313EA77
:1004C000CC1317D150F8042B51F8043B9A4215D1A4
:1004D000A2EB0C03934313EACC130BD150F8042B7B
:1004E00051F8043B9A4209D1A2EB0C03934313EA5F
:1004F000CC13DBD04FF00000704700BFD01A01BA18
:10050000B1FA81F101F0180122FA01F0CB40C1F1FA
:100510002001DBB2C0B2C01A2CFA01F3D11A914308
:1005200011EAC311E6D1704770477047704710B5A4
:10053000203AC0F00B80B1E81850203AA0E81850DB
:10054000B1E81850A0E81850BFF4F5AF5FEA027C9C
:1005500024BFB1E81850A0E8185044BF18C918C00B
:10056000BDE810405FEA827C24BF51F8043B40F8AC
:10057000043B08BF7047D20728BF31F8023B48BF91
:1005800011F8012B28BF20F8023B48BF00F8012BCF
:100590007047754600F028F8AE4605006946534698
:1005A00020F00700854618B020B5FFF76BFEBDE8C8
:1005B00020404FF000064FF000074FF000084FF0CA
:1005C000000B21F00701AC46ACE8C009ACE8C0095B
:1005D000ACE8C009ACE8C0098D4670470446AFF3EB
:1005E00000802046FFF739FE004870477CDF01207D
:1005F00001491820ABBEFEE726000200704700004C
:1006000021484FF0FF010170002080F309881F4846
:10061000016881F308881E484FF08051016062B67E
:10062000FEE71B484FF080510160704718484FF0BB
:1006300080510160704772B6EFF3098050B11EF02F
:10064000100F08BF20ED108A734620E9F80F1149FA
:100650000968086000B5104880475DF804EB0F4852
:100660000F490A7802700B480E490A680260106848
:10067000B0E8F80F9E461EF0100F08BFB0EC108ACD
:1006800080F3098862B6704722ED00E0EC08002094
:1006900004ED00E0E4080020413700087208002063
:1006A00073080020E808002000B58DB0012108463D
:1006B00005F03CF90121080205F058F901200B90E2
:1006C00003208DF8300000208DF833000BA9154869
:1006D00001F037FA0121080205F058F900214FF422
:1006E000807005F053F9002007900A9009904FF4AC
:1006F0008030089007A800F069F8002001908DF87C
:1007000008008DF809000390059001208DF818006D
:1007100001A9054800F080F80121034800F04AF8DB
:100720000DB000BD000002400020014000B58DB0BA
:100730000121202005F0FAF80121880205F016F9C0
:100740004FF4FF600B9003208DF8300000208DF8EF
:1007500033000BA9154801F0F4F90121880205F0D6
:1007600015F900214FF4806005F010F90020079082
:100770000A9009904FF48030089007A800F026F8FE
:10078000002001908DF808008DF809000390059075
:1007900001208DF8180001A9054800F03DF801215D
:1007A000034800F007F80DB000BD0000001402403F
:1007B0000022014021B1826842F00102826003E020
:1007C000826822F001028260704700000021084A1E
:1007D0001168084A1140D0E900231A4383681A437C
:1007E000C3681A431143044AC2F804137047000057
:1007F00004230140E030FCFF002001400146C86CAA
:1008000080B270470246002013680B400BB10120F4
:1008100000E000207047000030B5024600200023B1
:100820005068104C20400D790C6844EA05242043A0
:10083000506090680C4C2040D1E903542C438D68E3
:100840002C434D7944EA450420439060D06A20F45B
:1008500070000C7D641EE4B2234340EA0350D06272
:1008600030BD0000FFFEFFFCFDF7FFC0F0B5044601
:100870000D4600200021092D11DDE068A5F10A06D2
:1008800006EB4607072606FA07F18843A5F10A0694
:1008900006EB460603FA06F10843E0600CE0206927
:1008A00005EB4507072606FA07F1884305EB4506E1
:1008B00003FA06F108432061072A0FDA606B561E1F
:1008C00006EB86071F2606FA07F18843561E06EB3D
:1008D000860605FA06F10843606322E00D2A0FDA66
:1008E000206BD61F06EB86071F2606FA07F1884302
:1008F000D61F06EB860605FA06F10843206310E0D2
:10090000E06AA2F10D0606EB86071F2606FA07F13C
:100910008843A2F10D0606EB860605FA06F10843A8
:10092000E062F0BD816841F0804181607047000065
:100930000EB5002417E002A800210B460622CDE9DF
:100940000010084602F092FF05F06EFA04461CB94A
:1009500005480078012804D10122D102034801F0A2
:100960005DF905F00BFBE6E7F8070020001C0240EC
:10097000B6B0C82103A8FFF770FD0122D1021C48C0
:1009800001F04CF935A800210B460122CDE90010F9
:10099000084602F06BFF00224FF40061144801F09A
:1009A0003DF924E035A800214FF4FA730A46CDE959
:1009B0000010084602F05AFF35A800214FF4FA73E0
:1009C0000A46CDE90010084602F050FF09480078B9
:1009D000012808D101F048FB00200649087003A84F
:1009E00001F004FA0446A1B203A807F015FDD9E707
:1009F000001C0240000000208CB00C2269463648E2
:100A000005F000F900240CE01DF80400AA2804D128
:100A1000601C1DF80000552802D000202F490870E6
:100A2000A41C302CF0DB2D480078012843D1022291
:100A300069462948403005F0E5F89DF8000028494E
:100A400008709DF80100274908709DF802002649AA
:100A500008709DF80300254908709DF804009DF872
:100A6000051040EA012022490880022269461A48FE
:100A7000483005F0C7F89DF800001E4908709DF841
:100A800001001D4908709DF802001C4908709DF87E
:100A900003001B4908709DF804001A4908709DF86E
:100AA0000500194908709DF80600184908709DF85E
:100AB00007001749087006F074FB01F0FFF80BF00F
:100AC00073FF01201349087004E000F063FA08B1D5
:100AD00001F084F9F9E7000000000F080100002090
:100AE00098090020990900209A0900209B090020FC
:100AF000C00900209C0900209D0900209E090020BB
:100B00009F090020A0090020A1090020A2090020BF
:100B1000A30900200000002010B58AB0044600F0B0
:100B2000A1F801F019FA04F0B5FFFFF7BDFDFFF7DA
:100B3000FDFD00F087F809A802F0FAF900F000F9CD
:100B400009A8032100220592CDE90621089005207D
:100B50004FF480616622214BCDE90132CDE90310CB
:100B6000082000231E4A1FA10090224802F06AFAC2
:100B700009A8032100220592CDE90621089005204D
:100B8000490299221C4BCDE90132CDE903100A201C
:100B900000231A4A1AA100901D4802F053FA09A82E
:100BA000032100220592CDE90621089005204FF48B
:100BB00080616622174BCDE90132CDE9031009208F
:100BC0000023154A15A10090184802F03BFA09A924
:100BD000174802F0E5FA0AB010BD0000D42C00203E
:100BE00071090008417070205461736B204C4544BA
:100BF00031000000940A0020D43C0020F9090008CC
:100C0000417070205461736B204E45540000000009
:100C1000540B0020D454002031090008417070208A
:100C20005461736B2041444347455400140C002029
:100C3000D40900201FB5684604F0B8FE019804B03E
:100C400010BD000070B5FFF7F5FF044603480068CB
:100C5000B4FBF0F5284602F0FDFE70BD88D3000815
:100C600000BFFEE710B500F0FDF800F003F800F05B
:100C7000F3F810BD70B50026002018490880184907
:100C80000880184908601849086018490860184920
:100C9000086018490860002400BFFFF709FB0646FA
:100CA00000BF00250BE000201049086000F074F838
:100CB00000F08CF80D4800680444681C85B2002DD3
:100CC000F1D00C4804600020084908600849086019
:100CD00000BF3046FFF7F0FA00BF70BD10080020DB
:100CE0001208002014080020180800202008002006
:100CF000240800201C08002001460846044A126807
:100D0000904203D9024A1268801A00E0002070471E
:100D10001C08002070B5002500BFFFF7C9FA054682
:100D200000BF0648046800BF2846FFF7C5FA00BFA9
:100D30002046FFF7E1FF0646304670BD2008002040
:100D400070B50025FFF7E6FF044600BFFFF7B0FAD5
:100D5000054600BF00200449086000BF2846FFF791
:100D6000ABFA00BF204670BD2008002070B50025FA
:100D700000BFFFF79DFA054600BF0648046800BFA4
:100D80002846FFF799FA00BF2046FFF7B5FF064651
:100D9000304670BD2408002010B509480088401C6A
:100DA000074908800748008818B900F085F8064907
:100DB000086004480088401C0249088010BD0000FB
:100DC00010080020120800201408002010B50F4859
:100DD0000088401E0D49088008460088A0B900F030
:100DE0006BF80B490860084600680A490968441A0C
:100DF00009480068A04201D207480460074800681B
:100E0000A04201D20548046010BD00001208002075
:100E100018080020140800202008002024080020C2
:100E200010B5002400BF00BFFFF742FA044600BF20
:100E3000FFF7B2FF00BF1021064801F083F800BFA2
:100E4000FFF7C4FF00BF2046FFF736FA00BF00BF20
:100E500010BD00005065002010B5FFF7E1FF10BD88
:100E600000BFFEE710B500200249086000F00AF854
:100E700010BD00000C080020014908607047000008
:100E80000C08002010B5FFF7D5FE0446084800689E
:100E900040F0807006490860002006494860084616
:100EA000006840F0010008602046FFF7E5FF10BD34
:100EB000FCED00E0001000E00149486870470000C8
:100EC000001000E0F0B503460022F121002411E0FB
:100ED000881800EBD07C4FEA6C04944201D08C421D
:100EE00000D10CE0204850F82400984201DC214653
:100EF00000E022461C4850F821009842E8DD00BF7F
:100F0000194850F82200984203D1184850F822009E
:100F1000F0BD154850F82100984203D1134850F80D
:100F20002100F5E7104850F82200DFF83CC05CF8DB
:100F300021C0A0EB0C060D4850F82100DFF82CC0B2
:100F40005CF822C0A0EB0C00DFF81CC05CF821C0EC
:100F5000A3EB0C0C00FB0CF090FBF6F7034850F8E9
:100F60002200C5192846D3E75C0000202004002099
:100F7000704708B53D208DF8000000208DF8010075
:100F80008DF8020001208DF80300684601F09CF8FE
:100F900008BD000034480068006800F00040E8B96F
:100FA00031480068006800F48070B8B12F480068CC
:100FB0008068401C2D49096888602C48006880685A
:100FC000012804D128480068284909680860264893
:100FD0000068264909684860012070472248006877
:100FE000006800F00040F0B91F480068006800F495
:100FF0000070C0B11C480068006800F4807090B9AF
:1010000019480068194909680860002017490968EB
:101010004860012015490968886013480068C06865
:10102000114908601DE010480068006800F00040A9
:10103000B8B90D480068006800F4007088B90A4823
:101040000068006800F4807058B90848006880683B
:10105000401C06490968886003480068C068024966
:1010600008600020B9E70000B4090020B80900209A
:1010700001494861704700000090024030B10749C3
:10108000896941F00201054A916105E003498969D6
:1010900021F00201014A9161704700000090024076
:1010A00070B50C4613460021124D286000BF18E0B1
:1010B00000EB41124FF00045156044F2F4555560C5
:1010C000C1EBC11505EB450504EB850595605D1E7B
:1010D0008D4204D900EB41152035D56000E0D06089
:1010E000491C9942E4D3044DE860044D044E356038
:1010F00070BD0000B40900200090024064DF0120B0
:10110000B809002030B10749896941F40051054A06
:10111000916105E00349896921F40051014A916117
:10112000704700000090024030B50C461346002185
:101130000F4D286000BF15E000EB41124FF4801501
:101140001560C1EBC11505EB450504EB8505956000
:101150005D1E8D4204D900EB41152035D56000E0BD
:10116000D060491C9942E7D3024D286130BD000090
:10117000B00900200090024002680A4302607047F4
:1011800010B50121480604F0E1FB00214FF000708A
:1011900004F0DCFB10BD01B581B000200090019887
:1011A000009002E00098401E009000980028F9D1BD
:1011B0000CBD000008B5002000900848806940F48C
:1011C0008010064988610846806900904FF6FF70DC
:1011D000FFF7E1FF01490098886108BD00900240D7
:1011E0001CB5FFF7CDFF0121880304F0BFFB0120F0
:1011F00004F06AFD8620009003208DF8050002208F
:101200008DF8040000208DF806008DF8070069466F
:101210001E4800F096FC0B2201211C4800F0D9FC6E
:101220000B220221194800F0D4FC0B220721174899
:1012300000F0CFFC322000906946154800F081FC98
:101240000B220121124800F0C4FC0B22042110489B
:1012500000F0BFFC0B2205210D4800F0BAFC4FF452
:10126000D040009069460B4800F06BFC0B22114601
:10127000084800F0AEFC0B220D21064800F0A9FC46
:101280000B220E21034800F0A4FC1CBD000002400C
:10129000000802400018024000200449096801F0DB
:1012A000010109B1012000E00020704700900240D8
:1012B0001EB5002100220092019202920C4A12688F
:1012C0001268C2F30D42111F00910A4A1268126897
:1012D0000292084A1268126892680192044A1268DF
:1012E000D268034B1A609DE81C0080E81C001EBDFC
:1012F000B4090020B809002010B5FFF74BFE08B173
:1013000000F06CFD0648406900F0800020B18020AC
:1013100003494861002088600248FFF7A9FE10BD1C
:1013200000900240408001002DE9F04186B0044663
:101330000F464FF000080025002005909A4E0090BF
:101340009A48056925F01C0501A804F02FFB029EB0
:101350009748864205D39748864202D245F0080551
:101360001AE09448864205D38F48864202D245F05F
:101370000C0511E08C48864203D38F48864200D288
:101380000AE08D48864205D38C48864202D245F059
:10139000040501E045F01005844805614FF4004262
:1013A0000021384600F0C4FA18B9002006B0BDE8A4
:1013B000F0818348FFF7EFFE8148FFF7ECFE80489D
:1013C000FFF7E9FE7E48FFF7E6FE206800284ED0D2
:1013D00000BF0098401C00900121384600F0FEF943
:1013E00000F0040018B9774900988842F1D3754994
:1013F0000098884201D10020D8E7002000904FF4E7
:1014000080520021384600F093FA08B90020CDE759
:1014100000BF0098401C00900121384600F0DEF922
:1014200000F0200018B9674900988842F1D3654957
:101430000098884201D10020B8E7002000901021D8
:10144000384600F0CBF9804608F0040018B14FF49C
:101450000060206201E00020206208F0020010B16C
:101460000020606116E04FF48040606112E0206A65
:10147000C0F3CF006169C1F34F0140EA01020021CE
:10148000384600F055FA08B900208FE76FF07F402A
:10149000FFF781FE454805684B480540D4E9010146
:1014A0000843E16808432169084361690843A16969
:1014B0000843E1690843216A0843616A0843A16A55
:1014C0000843E16A0843216B0843616B0843054305
:1014D00036480560D4E90E010843216C0843616C6D
:1014E0000843A16C0843E16C0843216D0843616D1A
:1014F00008432E494860A06D8860E06DC8600846CA
:1015000085694FF641700540B4F86010606E40EA9E
:101510000140A16E0843E16E0843216F0843616FEB
:101520000843054321488561D4E91E0108431F494A
:10153000C8612648856926480540D4E9200108434A
:10154000D4F888100843D4F88C100843D4F89010CD
:101550000843D4F894100843D4F898100843D4F8FA
:101560009C100843D4F8A010084305431748856130
:10157000D4E929010843D4F8AC100843D4F8B010DA
:101580000843D4F8B41040EA8100D4F8B8100843F6
:1015900040F400000D4908600846006840F08000F3
:1015A0000860012002E700000087930300800240EA
:1015B000002D3101C00E160200E1F50580D1F008C2
:1015C000FFFF0F00FFFF04000F8120FF009002408B
:1015D000233FDEF810B50B794C7943EA0422094B1E
:1015E00003441A64CB781B068C7843EA04434C7896
:1015F00043EA04230C7843EA0402024B03445A648E
:1016000010BD00000080024010B5B0B001214FF0C5
:10161000606004F08BF9FFF7B3FD00F015F900BF2F
:10162000FFF73AFE0128FBD001A800F027F90120BE
:101630000190002008904FF400700B9000200C9057
:101640000F901290149010201590002016904FF4D7
:1016500080600A90002021904FF0007022900011CD
:10166000249000202690279004202990C0052A90DD
:1016700040122B9080012C9040122D9000202F9032
:10168000012101A8FFF750FEC4B2204630B010BDC2
:1016900038B504460020009034B10C48006840F092
:1016A00004000A49086005E00848006820F00400CA
:1016B000064908600548006800904FF6FF70FFF784
:1016C0006AFD02490098086038BD000000800240B1
:1016D00038B504460020009034B10C48006840F052
:1016E00008000A49086005E00848006820F0080082
:1016F000064908600548006800904FF6FF70FFF744
:101700004AFD02490098086038BD00000080024090
:1017100070B502460023002500242E4800680068AA
:1017200000F0004008B1002070BD2A48016840F276
:10173000F450824208DD92FBF0F392FBF0F600FBDE
:10174000162010B15B1C00E00123012B0CD10868AE
:1017500040F040500860C2F30C004860086840F058
:1017600000400860C96826E0002422E0086820F0F4
:10177000405008601CB9086840F08050086040F292
:10178000F4504860581EA0420DD1086840F0005047
:101790000860581EC0EBC01000EB4000A2EB8005B3
:1017A000C5F30C004860086840F000400860C96854
:1017B000641C9C42DAD3074801600748406900F086
:1017C000040020B10420044E7061002070600120EC
:1017D000AAE70000B00900200090024018B50246B8
:1017E0000B460021002000901548016901F01C0102
:1017F0004FF4784000EAC22001434FF4F86000EA59
:101800008310014321F0020141F001010C48016104
:1018100000BF0098401C00900948016901F00100D8
:1018200018B1084C0098A042F3D3064C0098A0428F
:1018300001D1002018BD0248406980B2FAE70000DB
:1018400000800240FFFF04000348006840F00100F0
:1018500001490860704700000090024010B5012067
:10186000FFF736FF0120FFF713FFFFF7A3FC01206E
:10187000FFF748FC0120FFF701FC10BD01210160CA
:10188000002141608160C16001614FF4804141618C
:1018900000218161C1614FF4006101620021416258
:1018A0008162C162016341638163C163402101645C
:1018B0002021416400218164C16401654165816525
:1018C000C16501668021416600218166C1660167AC
:1018D00041678167C1674FF08061C0F8801049108F
:1018E000C0F884100021C0F888104FF40011C0F82F
:1018F0008C100021C0F89010C0F89410C0F8981017
:10190000C0F89C10C0F8A0104FF00071C0F8A410EF
:101910004912C0F8A8108901C0F8AC104912C0F8EB
:10192000B0100021C0F8B410C0F8B8107047000023
:1019300038B503460C460021002000901448016988
:1019400001F01C014FF4784000EAC32001434FF43A
:10195000F86000EA8410014341F0020141F0010106
:101960000B484261016100BF0098401C009008488C
:10197000016901F0010018B1064D0098A842F3D3A7
:10198000044D0098A84201D1002038BD0120FCE799
:1019900000800240FFFF040030B10749096841F4AC
:1019A0008061054A116005E00349096821F48061FE
:1019B000014A116070470000003C024070B50446C7
:1019C0000A460026092502B909E0012A01D11602BA
:1019D00005E0022A01D1160201E04FF4407600F042
:1019E0009FF80546092D28D11548006820F440705D
:1019F00013490860084600683043086008460068DC
:101A000020F0F80008600846006844F0020108432E
:101A10000B4908600846006840F48030086000F018
:101A20007FF805460648006820F002000449086077
:101A30000846006820F0F8000860284670BD0000E5
:101A4000103C024009201349096801F48031B1F5C6
:101A5000803F01D101201CE00E49096801F010010E
:101A600009B1062015E00B49096801F4807109B13C
:101A700002200EE00749096801F0E00109B10720E2
:101A800007E00449096801F0020109B1082000E0FB
:101A9000092070470C3C02400348006840F00040B9
:101AA0000149086070470000103C024030B5024612
:101AB0000C46092500F034F80546092D19D10E48C9
:101AC000006820F440700C4908600846006840F443
:101AD000007008600846006840F00100086014606B
:101AE00000F01EF805460448006820F00100024995
:101AF0000860284630BD0000103C024005480068E0
:101B000000F0004028B1044802490C39086003483D
:101B100008607047103C024023016745AB89EFCD58
:101B200008B509200090FFF78DFF009002E0FFF755
:101B300089FF00909DF800000128F8D09DF8000072
:101B400008BDF0B50A4600210023002400BF3DE097
:101B5000012505FA01F3156805EA03049C4234D116
:101B600005684F000326BE40B543056015794E0059
:101B7000B5400668354305601579012D02D0157909
:101B8000022D16D185684F000326BE40B5438560FF
:101B900055794E00B5408668354385604568012615
:101BA0008E40B5434560456896798E40B6B2354360
:101BB0004560C5684F000326BE40B543C560D57972
:101BC0004E00B540C6683543C560491C1029BFD3D7
:101BD000F0BDF0B5002300244D07ED0E02FA05F329
:101BE000CE1000F1200555F826504E07F70E0F26AF
:101BF000BE40B543CF1000F1200646F82750CE1066
:101C000000F1200555F8265045EA0304CE1000F1F6
:101C1000200545F82640F0BD418370470AB1018395
:101C200000E041837047000070B1084A52F821205B
:101C300012680260054A52F8212052684260034A45
:101C400052F8212092688260704700000400002052
:101C500010B504460723012221460848FEF706FE78
:101C60000648FEF75FFE00BF02210448FEF7CAFDEA
:101C70000028F9D00148FEF7C1FD10BD0022014047
:101C8000FEB507460C46002500260EE03846FFF755
:101C9000DFFF054402A8002105230A46CDE9001014
:101CA000084601F0E3FD701CC6B2A642EEDBB5FBB0
:101CB000F4F080B2FEBD00BFFEE7000000B587B0C3
:101CC00000200390002108460AF002F9304800780D
:101CD00030B9304806906FF07F4005902E48049050
:101CE0002B48007801282CD12C48007801062C487C
:101CF000007841EA00412B48007841EA00202A4957
:101D00000978084306902948007801062848007899
:101D100041EA00412748007841EA00202649097835
:101D2000084305902548007801062548007841EAD7
:101D300000412448007841EA0020234909780843FB
:101D4000049022480699C0F853100599C0F857101E
:101D50000499C0F85B101E481E49002204ABCDE96F
:101D60000021029005AA06A91B4806F077FB1A4835
:101D700006F0CAFB184890F82D0040F010001649F4
:101D800081F82D00084606F00DFC07B000BD0000EC
:101D900001000020C0A802EAC0A802019B0900209F
:101DA0009A09002099090020980900209F09002025
:101DB0009E0900209D0900209C090020A309002005
:101DC000A2090020A1090020A0090020D46400205D
:101DD00025BF0008016B0008D428012010B5024877
:101DE00004F0A6FE10BD0000D42801202DE9F0412A
:101DF000A0B0804600260027002403E0BE200DF896
:101E00000400641C082CF9DB082403E0AA200DF868
:101E10000400641C102CF9DB68268DF81060301269
:101E20008DF8110001208DF812004FF440703949EF
:101E3000088039480078012803D138480088488054
:101E400003E042F210703349488020213148001DE0
:101E5000FEF7E1FA10212F482430FEF7DCFA1021BA
:101E60002C483430FEF7D7FA2DA12A48001DFEF782
:101E700061FA2FA127482430FEF75CFA2DA12548EE
:101E80003430FEF757FA0120224981F85000012131
:101E9000204880F85110002180F8521001201D497F
:101EA00081F8650000211B4880F866103246014623
:101EB0000DF11300FEF762FA132404E01DF804008C
:101EC0003844C7B2641C06F11300A042F6DC204679
:101ED000641C0DF80070254603E055200DF8050040
:101EE0006D1C04F108008542F7DB054603E0ED2098
:101EF0000DF805006D1C04F110008542F7DB06F1BA
:101F0000240269464046FEF739FA06F1240020B063
:101F1000BDE8F081D464002001000020C009002049
:101F20004869676856616C74616765426F78000044
:101F3000534E300053544D33324634303700000096
:101F400000BFFEE730B505460C4622460021284674
:101F500000F060F830BD00003EB500200B4908607D
:101F60000B4C02A801218B022246CDE90010094941
:101F700009A000F015F8BDF8080042F2107188427F
:101F800003D000BFFEF76CFF00BF3EBD2808002055
:101F900060650020606900204865617000000000F5
:101FA0002DE9F84F05460E4617461C46DDE90A891D
:101FB0004FF0000A00BF00BFFEF77AF9824600BF6B
:101FC000FEF7EAFE00BF43463A46314628460094F3
:101FD00000F010F800BFFEF7F9FE00BF5046FEF714
:101FE0006BF900BF00BF42F21070A9F80000BDE815
:101FF000F88F000030B5039C0A60651E15444D60E3
:102000008A60034D2D68CD600B61014D296030BDA4
:10201000280800202DE9F04105460B46944600278C
:10202000002402E03F021F43641C042CFAD36046E4
:1020300005F00306294646B1344603E001F8013BAA
:10204000401E641C08B1042CF8D30A4601E080C28B
:10205000001F0428FBD2114602E001F8013B401E9C
:102060000028FAD1BDE8F08110B50F480F4908608B
:102070000F48104908600D490F4804F029FF0AF085
:10208000D3FA0E4908600846006860B14BF2562248
:1020900009490A48006809F0EBFF0022084907488F
:1020A00000680AF0FBFA10BDEBECEDEE3800002002
:1020B000E1E2E3E43C000020B4D500083400002055
:1020C00011C800087047000070B5002100230F22DE
:1020D000C4781CB3174C246804F4E064C4F5E064CD
:1020E000C4F30721C1F10404E3B20A4144789C40DF
:1020F000E1B28478144021430C07210E0E4C057880
:102100006155047804F01F050124AC4005786D1179
:10211000AD0005F1E025C5F8004109E0047804F0C0
:102120001F050124AC40054D0678761145F8264080
:1021300070BD00000CED00E000E400E080E100E094
:102140007047000010B50348006810B101480068EE
:10215000804710BD3C08002070B5044600F0A2F88E
:1021600000203E4908703E4908703E4908703E49CB
:1021700008603E4908603E4908703E4908703E4983
:1021800008703E48006858B13D48056845B13B4875
:10219000066803E0761E002028602D1D002EF9D170
:1021A00000203849086038490860384908603849D3
:1021B000086038490860384908603849086038497B
:1021C000087002F0E1F802F099F9204601F02EFDC6
:1021D000208800B170BD204601F092FD208800B13A
:1021E000F8E7204601F098FD208800B1F2E720468C
:1021F00001F010FF208800B1ECE7204602F00CF956
:10220000208800B1E6E7204602F024FA208800B1D9
:10221000E0E7204602F088FD208800B1DAE720469A
:1022200001F036FD208800B1D4E7204603F0FEF926
:10223000208800B1CEE7204602F04AFC208800B199
:10224000C8E7204603F056FA208800B1C2E701F043
:1022500019FCFFF775FF00BFBCE700005008002025
:10226000580800207E080020E4080020E80800202C
:1022700072080020730800207408002058D300085A
:1022800054D300083008002034080020380800200B
:102290003C08002040080020440800204808002096
:1022A000AA080020064800680649096800EB81007A
:1022B000054908600846006820F00700086070477C
:1022C00054D3000858D30008EC08002010B50024AF
:1022D0002D480078012800D010BD00BFFDF7E8FFB1
:1022E000044600BF2948007828B900BF2046FDF702
:1022F000E3FF00BFF0E725480078401E234908703F
:1023000008460078002805DD00BF2046FDF7D4FF11
:1023100000BFE1E71E480078002805DD00BF204629
:10232000FDF7CAFF00BFD7E702F01AF81949087095
:102330000846007800EB4000174951F82000174983
:1023400008600846006816490968884205D100BF40
:102350002046FDF7B1FF00BFBEE710480068D0F887
:102360008C00401C0D490968C1F88C000D480068BC
:10237000401C0C490860FEF759F900BF2046FDF7E4
:102380009BFF00BF00BFA7E75808002050080020AF
:102390007E08002073080020A0790020E8080020B3
:1023A000E4080020A00800202DE9F04104460D4675
:1023B0001646002700BF00BFFDF77AFF074600BFA3
:1023C000FEF7EAFC00BF1148206065600020206233
:1023D000606284F82800E06204F1080001F0CBFE9E
:1023E000204601F0A7FD0A480088401C08490880E3
:1023F00000BFFEF7EBFC00BF3846FDF75DFF00BFF6
:1024000000BF00203080BDE8F08100004D555458D9
:10241000700800202DE9F04788B0054688469146AF
:102420001C46109E4FF0000A72492868884205D069
:1024300045F6C450308008B0BDE8F0870CB10020EC
:10244000206000BF00BFFDF733FF824600BFFEF7EC
:10245000A3FC00BF95F82800C8B967480068686207
:10246000012085F828000CB1E86A206029466248FE
:10247000006801F077FD00BFFEF7A8FC00BF5046E2
:10248000FDF71AFF00BF00BF00203080D3E75A4994
:10249000686A0968884225D195F82800FF280CD180
:1024A00000BFFEF793FC00BF5046FDF705FF00BFDD
:1024B00000BF45F284703080BDE795F82800401CCD
:1024C00085F828000CB1E86A206000BFFEF77EFCAA
:1024D00000BF5046FDF7F0FE00BF00BF45F282701E
:1024E0003080A8E709F4004060B100BFFEF76EFC41
:1024F00000BF5046FDF7E0FE00BF00BF46F2B0103F
:10250000308098E73D48007800280CDD00BFFEF7DA
:102510005DFC00BF5046FDF7CFFE00BF00BF46F692
:102520006350308087E76F6A97F83700324909684F
:1025300091F83710884206DD2F48006890F8371070
:10254000384602F041FB434604222946684601F022
:102550006DFD00BFFEF73AFC00BF5046FDF7ACFE34
:1025600000BF00BF00F030FA00BF00BFFDF7A0FEC3
:10257000824600BFFEF710FC00BF1F48006890F8BD
:10258000350030B101280CD002281AD0032821D1FF
:1025900010E01CB118480068806C2060002030807A
:1025A0001CE01CB114480068806C206046F2A91041
:1025B000308013E00CB10020206047F2D920308039
:1025C0000CE01CB10C480068806C206045F6C250DD
:1025D000308003E046F62E60308000BF00BF00BFB1
:1025E000FEF7F4FB00BF5046FDF766FE00BF00BFDC
:1025F00000BF20E74D555458E40800207E08002015
:102600002DE9F84F04468A4615464FF0000B58490D
:102610002068884204D045F6C4502880BDE8F88F71
:1026200000BF00BFFDF744FE834600BFFEF7B4FBCA
:1026300000BF5049606A096888420CD000BFFEF7AD
:10264000C5FB00BF5846FDF737FE00BF00BF45F28F
:1026500081702880E2E7FEF72FFC80462834C4F81A
:1026600004802078401E207014F8280900280CDD12
:1026700000BFFEF7ABFB00BF5846FDF71DFE00BFD5
:1026800000BF45F283702880C8E7214639480068BA
:1026900001F0B2FC04F10809B9F8080078B900208B
:1026A000606284F8280000BFFEF790FB00BF584628
:1026B000FDF702FE00BF00BF00202880AEE72D48D6
:1026C000006890F837002B49096891F83810884263
:1026D00028D02848006801F079FC064625480068A3
:1026E00090F83810B14204DA2248006890F83800B7
:1026F00000E0304606461F48006890F83700B042B8
:1027000010DA1C48006801F05FFF1A48006880F882
:102710003760304601F044FE1648006801F036FF8D
:1027200015480670D9F8000087686762012084F8B0
:1027300028002146384601F015FC00231A46394688
:102740002046CDF8008001F089FD00BFFEF73EFB7A
:1027500000BF5846FDF7B0FD00BF00BF0AF40040BF
:1027600008B900F031F90020288000BF56E70000CA
:102770004D555458E4080020720800202DE9F0411E
:1027800004460D4616461F464FF0000800BF00BF26
:10279000FDF78EFD804600BFFEF7FEFA00BF104831
:1027A00020606560314604F1200001F039FB04F13E
:1027B000080001F0E0FC204601F016FE0948008800
:1027C000401C0849088000BFFEF700FB00BF4046E0
:1027D000FDF772FD00BF00BF00203880BDE8F0812A
:1027E000515545557C0800202DE9F04F89B007462A
:1027F000884691461E46DDE912454FF0000B5F49C1
:102800003868884206D045F6C4502880002009B0B8
:10281000BDE8F08F0CB10020206000BF00BFFDF7C5
:1028200047FD834600BFFEF7B7FA00BF2B4622469E
:10283000314607F1200001F0BFFA8246288850B9DE
:1028400000BFFEF7C3FA00BF5846FDF735FD00BFD5
:1028500000BF5046DBE709F4004068B100BFFEF757
:10286000B5FA00BF5846FDF727FD00BF00BF46F28E
:10287000B01028800020CAE74148007800280DDD0C
:1028800000BFFEF7A3FA00BF5846FDF715FD00BFD5
:1028900000BF46F6635028800020B8E74346052273
:1028A000394601A801F0C2FB00BFFEF78FFA00BF56
:1028B0005846FDF701FD00BF00BF00F085F800BFDE
:1028C00000BFFDF7F5FC834600BFFEF765FA00BFC9
:1028D0002C48006890F8350030B1012815D0022846
:1028E0002AD0032835D11DE026480068D0F858A02A
:1028F00024480068B0F85C0030801CB121480068B2
:10290000806C2060002028802BE04FF0000A00201F
:1029100030801CB11B480068806C206046F2A91012
:1029200028801EE04FF0000A0020308004B12060B3
:1029300047F2D920288014E04FF0000A00203080B0
:102940001CB110480068806C206045F6C250288099
:1029500007E04FF0000A0020308046F62E60288005
:1029600000BF00BF00BFFEF731FA00BF5846FDF7B9
:10297000A3FC00BF00BF504649E700005155455534
:102980007E080020E40800202DE9FC4704460F469D
:10299000904699460A9D0B492068884204D045F626
:1029A000C4502880BDE8FC87FEF786FA06464B46F1
:1029B000424639462046CDE9006501F039FD00BFA9
:1029C000F0E700005155455510B500241F48007828
:1029D000002800DD10BD1E480078002800DDF9E762
:1029E00000BFFDF765FC044600BF01F0B9FC1949C2
:1029F00008700846007800EB4000174951F82000A5
:102A0000164908600846006815490968884205D1DA
:102A100000BF2046FDF750FC00BFDBE70F48006811
:102A2000D0F88C00401C0D490968C1F88C000D4895
:102A30000068401C0B490860FDF7F3FD00BF20460D
:102A4000FDF73AFC00BF00BFC4E7000050080020BB
:102A50007E08002073080020A0790020E8080020EC
:102A6000E4080020A008002070B5044600251548A1
:102A70000078012803D045F68960208070BD124897
:102A80000078FA2803DB45F209202080F6E700BF32
:102A900000BFFDF70DFC054600BFFEF77DF900BF46
:102AA00009480078401C0849087000BFFEF78EF9FD
:102AB00000BF2846FDF700FC00BF00BF00202080BB
:102AC00000BFDBE7580800207E08002070B50446F0
:102AD00000251E480078012803D045F68960208033
:102AE00070BD1B48007818B946F664502080F7E79F
:102AF00000BF00BFFDF7DCFB054600BFFEF74CF949
:102B000000BF13480078401E11490870084600783D
:102B100000280CDD00BFFEF759F900BF2846FDF77D
:102B2000CBFB00BF00BF46F663502080D8E700BF54
:102B3000FEF74CF900BF2846FDF7BEFB00BF00BF03
:102B4000FFF742FF0020208000BFC9E7580800209F
:102B50007E0800202DE9F04104460D4616461F462A
:102B60004FF0000800BF00BFFDF7A2FB804600BF8A
:102B7000FEF712F900BF0F48206026620020606255
:102B8000656004F1080001F0F6FA204601F04AFD04
:102B900009480088401C0849088000BFFEF716F964
:102BA00000BF4046FDF788FB00BF00BF0020388013
:102BB000BDE8F08153454D41840800202DE9F047E0
:102BC00088B00546884691461C46109E4FF0000A84
:102BD00059492868884206D045F6C4503080002004
:102BE00008B0BDE8F0870CB10020206000BF00BF36
:102BF000FDF75EFB824600BFFEF7CEF800BF286AF5
:102C000098B1286A401E28620CB1686A20602F6A59
:102C100000BFFEF7DBF800BF5046FDF74DFB00BFDD
:102C200000BF002030803846DAE709F4004070B178
:102C30002F6A00BFFEF7CAF800BF5046FDF73CFB05
:102C400000BF00BF46F2B01030803846C8E73B48AE
:102C5000007800280DDD00BFFEF7B8F800BF504631
:102C6000FDF72AFB00BF00BF46F66350308000200E
:102C7000B6E7434606222946684601F0D7F900BF69
:102C8000FEF7A4F800BF5046FDF716FB00BF00BFDB
:102C9000FFF79AFE00BF00BFFDF70AFB824600BFA8
:102CA000FEF77AF800BF2648006890F8350030B18A
:102CB00001280CD002281AD0032821D110E01CB121
:102CC0001F480068806C20600020308026E01CB126
:102CD0001B480068806C206046F2A91030801DE01F
:102CE0000CB10020206047F2D920308016E01CB1E2
:102CF00013480068806C206045F6C25030800DE0BB
:102D000046F62E60308000BFFEF760F800BF5046E8
:102D1000FDF7D2FA00BF00BF002061E700BF2F6AB5
:102D200000BFFEF753F800BF5046FDF7C5FA00BFDD
:102D300000BF384654E7000053454D417E0800204F
:102D4000E40800202DE9F04105460E4614460B49E3
:102D50002868884205D045F6C45020800020BDE890
:102D6000F081FEF7A9F880462346424631462846C0
:102D700001F07CFC07463846F1E7000053454D4121
:102D800010B5044612480078E8B901F0E9FA114993
:102D9000087008460078104908700E48007800EB6B
:102DA00040000E4951F820000D49086008460068AF
:102DB0000C490860012006490870FDF721FC43F624
:102DC0009920208002E045F68A60208010BD000036
:102DD000580800207308002072080020A079002005
:102DE000E8080020E40800202DE9F04107464FF0F4
:102DF000000800BF00BFFDF75BFA804600BFFDF78B
:102E0000CBFF00BF00204249088042490860424988
:102E1000086042490860424908604249088100BF91
:102E2000FDF7D4FF00BF4046FDF746FA00BF00BFE4
:102E300000BF00BFFDF73CFA804600BFFDF7ACFFC6
:102E400000BF3948046800BFFDF7C0FF00BF40461F
:102E5000FDF732FA00BF00BF25E000BF00BFFDF75D
:102E600027FA804600BFFDF797FF00BF00207434AB
:102E7000E06320602063A061A082E0826062A062C3
:102E8000FEF71AF82062743C04F160060020B0815D
:102E9000D4F8B84000BFFDF799FF00BF4046FDF7EA
:102EA0000BFA00BF00BF002CD7D100BF00BFFDF759
:102EB000FFF9804600BFFDF76FFF00BF1B480568A4
:102EC00000BFFDF783FF00BF4046FDF7F5F900BFE7
:102ED00000BF16E000BF00BFFDF7EAF9804600BF63
:102EE000FDF75AFF00BF05F120060020B081AD6953
:102EF00000BFFDF76BFF00BF4046FDF7DDF900BFE7
:102F000000BF002DE6D100203880BDE8F081000030
:102F10008A0800209C080020B0080020D408002067
:102F20005408002094790020A4080020780800208C
:102F3000F8B5044600266946364800F0EFFBBDF8B8
:102F4000000018B1BDF800002080F8BD6A460021DD
:102F5000022000F033FCBDF8000018B1BDF80000FD
:102F60002080F2E700BF00BFFDF7A2F9064600BFD0
:102F7000FDF712FF00BF00202749086000BFFDF7E2
:102F800025FF00BF3046FDF797F900BF00BF0025C1
:102F90002248006822490968884205D91F4800680C
:102FA0001F490968B0FBF1F525B91C4800680A21E2
:102FB000B0FBF1F56A460021284600F0FFFB6946A8
:102FC000144800F0C7F9BDF8000018B1BDF80000C2
:102FD0002080BAE700BF00BFFDF76AF9064600BFD0
:102FE000FDF7DAFE00BF00200E4908600A480068BD
:102FF0000D49086001200D49087000BFFDF7E6FE8D
:1030000000BF3046FDF758F900BF00BF0020208008
:1030100000BF9AE7D07C00208C08002088D30008ED
:1030200070D300089C080020900800209808002019
:1030300010B50348006810B101480068804710BD12
:10304000400800202DE9FF4F85B004469146DDF889
:1030500054B0DDE912A5199E00200290BAF11F0FAD
:1030600009D14648844206D046F273211A9801805D
:1030700009B0BDE8F08F204601F066FE00211A98E5
:10308000018006F0010088B106F0020070B1A84688
:103090000020049007E00020C8F8000008F10408B0
:1030A0000498401C049004985845F4D3149805EBF8
:1030B00080000390CDE900B62A464846039B089954
:1030C00000F0C4FA8046C4F828900898E062069898
:1030D000206284F837A084F838A0C4F800800398F0
:1030E000A060189860606562C4F840B0A4F84460BD
:1030F000002706E0002104F1780040F82710781C32
:10310000C7B2002FF6D004F16000169900F088FED7
:10311000204600F039F800BF00BFFDF7C9F8029063
:1031200000BFFDF739FE00BF94F8370001F038F911
:10313000204601F02BFA204601F0BCFD1048008823
:10314000401C0F4908800F480078012809D000BFB3
:10315000FDF73CFE00BF0298FDF7AEF800BF00BFD0
:1031600086E700BFFDF732FE00BF0298FDF7A4F826
:1031700000BF00BFFFF728FC00BF79E7D47800202C
:10318000A80800205808002010B50446034800682D
:1031900018B1204601490968884710BD3008002051
:1031A0002DE9F04104460E464FF000086048844285
:1031B00004D147F24C103080BDE8F0819CB900BFCB
:1031C00000BFFDF775F8804600BFFDF7E5FD00BFC5
:1031D0005848046800BFFDF7F9FD00BF4046FDF701
:1031E0006BF800BF00BF00BF00BFFDF761F880466D
:1031F00000BFFDF7D1FD00BF94F83600082860D26B
:10320000DFE800F004090E10080A0F11204601F053
:10321000DBF963E062E000BF204602F0C7F85DE042
:1032200000BF00BF00BF94F8340008283BD2DFE89D
:1032300000F0040705080E090A0600BF00BF33E0CE
:1032400000BF00BF00BF204600F0CDFF2CE0206B88
:10325000C068456A15F8377F204600F0C4FF28781B
:103260006978373D884212D095F8370094F83710C6
:1032700088420CD1284600F0A9FE074695F8380090
:10328000B84202DA95F8380000E0384607460020D8
:1032900084F8340095F83700B84203D03946284600
:1032A00001F092FC00E000BF00BF94F83600032854
:1032B00003D094F83600072802D1204602F076F8B1
:1032C0000CE000BFFDF782FD00BF4046FCF7F4FFB5
:1032D00000BF00BF46F62D6030806DE700BFE06B99
:1032E00010B1204600F042FE04F1600000F042FD03
:1032F000204600F023F8204601F0F4FC0E48008838
:10330000401E0D490880204601F01EFDFF2084F874
:10331000360000BFFDF75AFD00BF4046FCF7CCFF6A
:1033200000BF00BF00203080FFF74EFB00BF43E727
:10333000D4780020E4080020A808002010B5044636
:103340000348006818B1204601490968884710BD44
:103350003408002070B504460D46002600BF00BFAB
:10336000FCF7A6FF064600BFFDF716FD00BF00BF35
:10337000FDF72CFD00BF3046FCF79EFF00BF00BFED
:103380002946204601F042FD70BD000010B50446FC
:103390000348006818B1204601490968884710BDF4
:1033A000380800202DE9F0470746884614461D4698
:1033B0004FF000090CB10020206000BF00BFFCF7F7
:1033C00077FF814600BFFDF7E7FC00BF6548006856
:1033D000C06CC0B363480068C06C401E6149096896
:1033E000C86460480068C66C1CB15E480068806CA8
:1033F0002060FDF761FD5B490968896C401A5949F5
:103400000968C1F8A00057480068D0F8A4005549E1
:103410000968D1F8A010884207D252480068D0F855
:10342000A00050490968C1F8A40000BFFDF7CEFC18
:1034300000BF4846FCF740FF00BF00BF00202880C7
:103440003046BDE8F087FFE708F4004068B100BFF0
:10345000FDF7BCFC00BF4846FCF72EFF00BF00BFD5
:1034600046F2B01028800020EBE73F4800780028A3
:103470000DDD00BFFDF7AAFC00BF4846FCF71CFFAE
:1034800000BF00BF46F6635028800020D9E73B46C6
:1034900007220021084600F0C9FD00BFFDF796FC99
:1034A00000BF4846FCF708FF00BF00BFFFF78CFADB
:1034B00000BF00BFFCF7FCFE814600BFFDF76CFCBF
:1034C00000BF2848006890F8350020B1012826D0B8
:1034D000032834D12CE0FCB122480068806C2060C5
:1034E000FDF7EAFC1F490968896C401A1D49096803
:1034F000C1F8A0001B480068D0F8A4001949096869
:10350000D1F8A010884207D216480068D0F8A00071
:1035100014490968C1F8A4000020288013E01CB1F8
:1035200010480068806C206046F2A91028800AE0EC
:103530000CB10020206047F2D920288003E046F635
:103540002E60288000BF00BF06480068C66C00BF20
:10355000FDF73CFC00BF4846FCF7AEFE00BF00BFD5
:1035600030466EE7E40800207E0800202DE9F04197
:1035700005460E461446FDF79FFC8046234642460C
:103580003146284601F0DCFC07463846BDE8F081AC
:103590002DE9F04704460D4616461F464FF0000A37
:1035A00000BF00BFFCF784FE824600BFFDF7F4FBBE
:1035B00000BF0CB924480468206880B900BFFDF73B
:1035C00005FC00BF5046FCF777FE00BF00BF00209F
:1035D0002860306047F252103880BDE8F08794F8D8
:1035E000440000F0010078B900BFFDF7EFFB00BF19
:1035F0005046FCF761FE00BF00BF0020286030602D
:1036000047F254103880E8E700BFFDF7DFFB00BF4A
:103610005046FCF751FE00BF00BF4FF00008D4F841
:10362000249003E009F1040908F10108D9F8000029
:103630000028F7D0C5F80080206CA0EB08003060AF
:103640000020388000BFC8E7E4080020F0B5044639
:10365000DDE9055602EB850020F007004FF0807C85
:10366000071F3846C7F800C0071F38463C60DFF820
:10367000A8C0071F3846C7F800C04FF0123C071F0C
:103680003846C7F800C04FF0033C071F3846C7F85C
:1036900000C04FF0023C071F3846C7F800C0071FA4
:1036A00038463B60071F384639604FF0113C071F12
:1036B0003846C7F800C04FF0103C071F3846C7F81F
:1036C00000C04FF0093C071F3846C7F800C04FF054
:1036D000083C071F3846C7F800C04FF0073C071FDB
:1036E0003846C7F800C04FF0063C071F3846C7F8F9
:1036F00000C04FF0053C071F3846C7F800C04FF028
:10370000043C071F3846C7F800C06FF0020C071FC3
:103710003846C7F800C0F0BD294F000870B505460F
:103720000C460648854203D147F25B10208070BDED
:103730002146284601F0FCFC00BFF8E7D4780020C1
:1037400070B51B48006810B1194800688047FDF744
:10375000B3FB04461748006817490968884215D02A
:1037600014480068D0F89400201A12490968C1F87A
:10377000900010480068D0F898000E490968D1F808
:10378000901008440B490968C1F898000A4800687D
:10379000C0F89440FDF7D4FA054606480068D0F812
:1037A000B000A84203D203480068C0F8B05070BD12
:1037B00044080020E4080020E80800202DE9F0413A
:1037C00005460E461446002726480078002804DDEA
:1037D00046F663502080BDE8F08136B1022E05D058
:1037E000042E0AD0082E09D101E000BF00BF1DB988
:1037F00047F27E202080EEE704E003E045F62560F6
:103800002080E8E700BF00BF00BFFCF751FD07467E
:1038100000BFFDF7C1FA00BF2346324629461248D1
:10382000006801F065FD208848B100BFFDF7CEFAC1
:1038300000BF3846FCF740FD00BF00BFCBE70A4899
:10384000006800F0C1FE00BFFDF7C0FA00BF3846B7
:10385000FCF732FD00BF00BFFFF7B6F80020208064
:1038600000BFB8E77E080020E40800202DE9F84FEB
:1038700006460F46904699460B9C002000903D4816
:103880000078002804DD46F663502080BDE8F88FFC
:103890000A9800F00E0ABAF1000F09D0BAF1020F2F
:1038A00007D0BAF1040F12D0BAF1080F10D101E01D
:1038B00000BF00BFB9F1000F08D1B8F1000F05D16A
:1038C00027B91EB947F27E202080DFE704E003E03D
:1038D00045F625602080D9E700BF274805684FF4EA
:1038E000FA70B0FBF5F0484468434FF47A71B0FBCE
:1038F000F1F14FF461607043C7EB071200EB8200F7
:10390000404400FB051BBBF1000F2DD000BF00BFE2
:10391000FCF7CEFC009000BFFDF73EFA00BF234647
:10392000524659461548006801F0E2FC208848B12B
:1039300000BFFDF74BFA00BF0098FCF7BDFC00BFCD
:1039400000BFA3E70D48006800F03EFE00BFFDF792
:103950003DFA00BF0098FCF7AFFC00BF00BFFFF7C7
:1039600033F80020208002E047F27E20208000BF54
:103970008CE700007E08002088D30008E4080020BF
:1039800070B50446002600BF00BFFCF791FC064658
:1039900000BFFDF701FA00BF0748056800BFFDF74B
:1039A00015FA00BF3046FCF787FC00BF00BF0020BF
:1039B0002080284670BD0000AC08002008B500F04B
:1039C0001FF86A4600210A48FFF7D0FD0948006841
:1039D000401E084908600846006838B90648006873
:1039E00008606A4600210548FFF7C0FD08BD0000D9
:1039F000E07B0020E0080020DC080020D07C0020D4
:103A000010B50348006810B101480068804710BD38
:103A10004808002010B5002400BF00BFFCF748FC98
:103A2000044600BFFDF7B8F900BF09480078401C04
:103A30000749087000BFFDF7C9F900BF2046FCF731
:103A40003BFC00BF00BFFFF7B9FFFEF73FFC10BD16
:103A50005008002001464A1E4FF0E0235A61084AF0
:103A6000106820F07F4000BF10601A46126942F0D3
:103A700005021A611A46126942F002021A61704781
:103A800020ED00E0244A2549254A264A2649274AAE
:103A90002748284A284A294A294A2A482A482B4A94
:103AA0002B482C4A2C482D4A2D482E482E482F486A
:103AB0002F4A304A304A3148314A324A3248334834
:103AC00033483448344835483548364A364A374A08
:103AD000374A384838483948394A3A4A3A4A3B48D6
:103AE0003B483C483C493D483D4A3E4A3E4A3F4AA5
:103AF0003F4A404A404A4148414A424A4248434874
:103B0000434A444A4448454A454A4648464800BF15
:103B100000BF00BF70470000BCD3000824D50008D8
:103B2000BDD30008BED30008C0D30008C4D300082A
:103B3000C8D30008C5D30008F0D30008F1D30008AB
:103B4000F2D30008F4D30008F6D30008FAD3000833
:103B5000FCD300081CD400081ED4000820D40008A0
:103B600022D4000824D4000826D4000828D4000851
:103B700058D4000859D400085AD400085CD400086E
:103B80005ED400085FD4000860D4000862D4000846
:103B900064D4000866D4000868D400086AD4000819
:103BA0006CD400089CD400089DD400089ED4000862
:103BB0009FD40008A0D40008A2D40008A4D4000810
:103BC000CCD40008CDD40008CED40008CFD400084F
:103BD000D0D40008D2D40008D4D40008D8D4000827
:103BE000D9D40008DAD40008DBD40008DCD40008FB
:103BF000DDD40008DED40008DFD40008E0D40008DB
:103C0000E2D40008E3D40008E4D40008E6D40008B5
:103C1000E8D40008E9D40008ECD400081CD500085A
:103C20001DD500081ED5000820D500080021034A34
:103C30001160034A11800180704700005C08002079
:103C40006008002000241DE000BF00BFFCF730FB2F
:103C5000044600BFFDF7A0F800BF0B480068401CF9
:103C60000949086009480068401C0849086000BF0D
:103C7000FDF7ACF800BF2046FCF71EFB00BF00BFFD
:103C8000FEF760FAE0E700004C0800208C080020F6
:103C900010B58AB0044600200E4908600B200021B0
:103CA0000591CDE90704069108460B4909680B4ABE
:103CB00012680B4B1B68CDE90132CDE903101F20C0
:103CC0000023084A08A100900C48FFF7BBF90AB08E
:103CD00010BD00004C08002030D300082CD3000891
:103CE00028D30008453C000875432F4F532D494900
:103CF000492049646C65205461736B00D4780020BE
:103D00000021034A1160034A1180018070470000BE
:103D1000640800206808002070B50246124D28682B
:103D200029681031114D2D886D1EACB2002308E0BA
:103D30000160002545600581C560103010315D1CB3
:103D4000ABB2A342F4DB0025056045600581C56088
:103D5000054D2D68064E3560044D2D88B580002533
:103D6000F5803581158070BD68D3000860D30008E8
:103D70009479002010B5014648894B89002B17DD46
:103D80000A680C4B1B6813600A4C4B68236023467F
:103D9000DB884C891B1B074CE38023469B884C899E
:103DA0002344044CA38000234B818B810B604B6028
:103DB00010BD000094790020F0B504460D466089DE
:103DC00040B90020288002B1106046F2925018805D
:103DD0000020F0BD61684E68088928800AB1C86873
:103DE000106008686060606818B900202060608119
:103DF00002E06089401E608108480068086007484A
:103E000001608088401C054FB8803846C088401E3D
:103E1000F880002018803046DBE70000947900200D
:103E2000018100224281828102604260704700006D
:103E30002DE9F0410D46DDE90674B0F80AC0B0F88E
:103E40000880C44505DB46F2935CA4F800C0BDE8D9
:103E5000F081DFF8DCC0BCF804C0BCF1000F04D175
:103E600045F21D7CA4F800C0F1E7DFF8C4C0DCF81F
:103E70000010DFF8BC80D1F800C0C8F800C0C4460C
:103E8000BCF804C0ACF1010CA8F804C0C446BCF8EE
:103E900006C00CF1010CA8F806C0C446BCF808C066
:103EA000B8F80680C44507DADFF884C0BCF806C05D
:103EB000DFF87C80A8F808C0B0F80AC0BCF1000F99
:103EC0000AD1016041604FF0010CA0F80AC04FF028
:103ED000000CC1F800C017E003F0100CBCF1000F9B
:103EE00007D10668316001604FF0000CC1F800C0D6
:103EF00004E0D0F804C0C1F800C04160B0F80AC0C6
:103F00000CF1010CA0F80AC0B0F80CC0B0F80A809F
:103F1000C44503DAB0F80AC0A0F80CC04D600A81AD
:103F2000CF604FF0000CA4F800C000BF8FE7000086
:103F30009479002009A1C161002141610849096803
:103F400011B90021816105E00549096881610449D1
:103F500009684861024908607047000020000000BD
:103F60006C080020C26B0A62C16370472DE9F843F8
:103F70000546EC6B26E0D4F82090FCF79DFF064642
:103F8000E6622146284600F037F804F10808B8F840
:103F9000080020B9002084F82800606211E0D8F8F9
:103FA000000087686562012084F8280021463846B1
:103FB000FFF7D8FF00231A4639462046009600F046
:103FC0004DF94C46002CD6D1BDE8F88330B50446F7
:103FD0001F2004F13C010BE00D68AB682BB19D681C
:103FE00095F83720824200DA10460D6805F120016D
:103FF0000D68002DF0D130BD024602F13C0002E018
:10400000036803F1200003688B42F9D103681B6A3F
:10401000036070470021034A1160034A1180018048
:10402000704700006C080020700800202DE9F04166
:1040300005460C4616461F461548006880F8346051
:1040400000201349096881F8350039461048006896
:1040500000F0A4FD6CB104F10808EC6001222946CF
:104060000B48006800F016F82946404600F088F832
:1040700007E0002006490968A1F8460004490968DC
:10408000086303480168204600F018F8BDE8F08195
:10409000E408002010B5A0F84620016300230AE0E0
:1040A00000244C600C600C614C610C83CC61886016
:1040B00020315C1CA3B29342F2DB10BD30B548B195
:1040C0004568C1F8BC5000F10804226893681D6A75
:1040D000C56113E091F83450022D02D0072D08D1AC
:1040E00003E007A5C1F8BC5007E007A5C1F8BC5024
:1040F00003E008A5C1F8BC5000BF00BF30BD000000
:104100005461736B205100005461736B2053656DD3
:10411000000000002000000030B507A5C1F8BC5029
:1041200000F1080422681AB193681D6AC56101E0B4
:1041300001A5C56130BD0000200000002DE9F0415F
:104140000446256BB4F8467011E0D5F80C8008F1F0
:1041500008063089012807D92946304600F05DF865
:104160002946304600F00CF82035781E87B2002F23
:10417000EBD1BDE8F0810021016041600181704711
:10418000F0B58E6896F8375007893FB90127078147
:1041900000274F600F600160416023E007897F1CAA
:1041A0000781026806E0946894F83770AF4200DD3A
:1041B00002E05268002AF6D100BF32B900274F60F2
:1041C00043680B60596041600CE017682FB91160BB
:1041D00000270F604A60016004E013680B604A60CA
:1041E00059601160F0BD2DE9F0410446256BB4F82B
:1041F00046600AE0D5F80C8008F1080729463846E1
:1042000000F00BF82035701E86B2002EF2DC002084
:10421000A4F846002063BDE8F08110B50489012CA4
:1042200003D100240460446011E00C6824B94A689A
:104230000024146002600AE04C6824B90B68002472
:104240005C60436003E00B684A685A60136004894D
:10425000641E048100244C600C6010BD2DE9F843FD
:1042600006460C4617469846089D94F836000828DE
:104270005BD2DFE800F0040508090607323300BF0F
:1042800000BF00BF52E000BF94F83400032807D1FC
:1042900043463A4621463046009500F04AF803E08E
:1042A000A765A4F85C80A56436B12046FFF79BFFA4
:1042B00021463046FFF730FF94F83600032802D13C
:1042C000204601F073F8204600F02AF9002034342B
:1042D000A070607004F8340928E000BF94F834003E
:1042E000032807D143463A4621463046009500F060
:1042F00020F803E0A765A4F85C80A56436B12046E9
:10430000FFF771FF21463046FFF706FF94F83600AD
:10431000072802D1204601F049F804203434A07067
:104320000020607004F8340900E000BF00BFBDE861
:10433000F883F0B50446059E086BB1F846500AE0D4
:10434000C768A74204D1046142610383C66104E0E7
:1043500020306F1EBDB2002DF2DC00BFF0BD0000AA
:1043600070B50025074C03E005F12000C5B2241DFF
:1043700020680028F8D02068FBF7A5FF2844C5B2C4
:10438000284670BD2C080020002004E00021034ACC
:1043900042F82010401C0028F8D070472C0800205C
:1043A00030B5420900F01F030121C3F11F04A140F1
:1043B000034C54F822400C43014D45F8224030BDD7
:1043C0002C08002030B5420900F01F030121C3F181
:1043D0001F04A140034C54F822408C43014D45F882
:1043E000224030BD2C08002009A1C161002141619B
:1043F0000849096811B90021816105E0054909688A
:1044000081610449096848610249086070470000F9
:1044100020000000780800200021034A1160034AB0
:104420001180018070470000780800207C0800207F
:104430002DE9F04F85B007468A4693461C4600207A
:10444000029000BF00BFFBF733FF029000BFFCF7F4
:10445000A3FC00BF07F108063089F0B904F0100092
:1044600010B94FF0000801E04FF01008DDE90E012F
:1044700043465A46CDE90001514607F12000FFF7B7
:10448000D7FC00BFFCF7A2FC00BF0298FBF714FFAB
:1044900000BF00BF05B0BDE8F08F04F4007008B1A4
:1044A000358900E00125D6F8009011E0D9F8080020
:1044B0000390D9F8040004900E985B465246009091
:1044C00038460399FFF7CAFEDDF81090681E85B2E2
:1044D000002DEBD100BFFCF779FC00BF0298FBF781
:1044E000EBFE00BF00BF04F4004008B9FEF76CFA11
:1044F00000210F98018000BFCCE7000000210AE0F6
:1045000001EB4102054B03EB8200002202810260B5
:1045100042604A1CD1B22029F2D37047A079002012
:1045200010B5044694F83700FFF73AFF94F83700C7
:1045300005490978884203D1204600F027F802E0B7
:10454000204600F003F810BD7208002010B590F866
:10455000373003EB43030C4C04EB83010B893BB96D
:1045600001230B810023C36003610860486009E0F8
:104570000B895B1C0B810B68C360002303610A6815
:104580001061086010BD0000A079002010B590F8FF
:10459000373003EB43030B4C04EB83010B893BB92E
:1045A00001230B810023C36003610860486008E0B9
:1045B0000B895B1C0B810023C3604A680261D060D9
:1045C000486010BDA07900202DE9F041054695F81E
:1045D000370000EB4000124901EB80042F69EE68C0
:1045E00087B946B9002020812060606095F83700C7
:1045F000FFF7E8FE0EE02089401E20810020306198
:10460000266007E02089401E2081FE600EB96760A9
:1046100000E0376100202861E860BDE8F08100001B
:10462000A079002009A1C161002141610849096800
:1046300011B90021816105E00549096881610449DA
:1046400009684861024908607047000020000000C6
:10465000800800200021034A1160034A1180018074
:104660007047000080080020840800202DE9FF5FCB
:104670000446884691461D460020019000BF00BFB9
:10468000FBF716FE019000BFFCF786FB00BF04F1AC
:1046900008073889002857D10420012804D00228AF
:1046A00016D004283AD127E0206AFF280FD100BF96
:1046B000FCF78CFB00BF0198FBF7FEFD00BF00BFBD
:1046C00046F6C5502880002004B0BDE8F09F26E0E3
:1046D0004FF6FF71206A88420DD100BFFCF776FBD0
:1046E00000BF0198FBF7E8FD00BF00BF46F6C550CC
:1046F00028800020E8E712E0206A401C68B900BF6B
:10470000FCF764FB00BF0198FBF7D6FD00BF00BFBC
:1047100046F6C55028800020D6E700E000BF00BF65
:10472000206A401C2062D4F820A0C4F8249000BF66
:10473000FCF74CFB00BF0198FBF7BEFD00BF00BFBC
:10474000002028805046BFE708F4007008B13E8979
:1047500000E00126D7F800B011E0DBF80800029075
:10476000DBF80400039000231A46CDF800902046A1
:104770000299FFF773FDDDF80CB0701E86B2002EB3
:10478000EBD1D4F820A000BFFCF720FB00BF0198BC
:10479000FBF792FD00BF00BF08F4004008B9FEF728
:1047A00013F90020288050468EE7000086B00020D4
:1047B000009006E0B6490968480001AA0021FEF70A
:1047C000FDFFB44800780128F4D101A8FEF70CFBE6
:1047D0000027B1480068AE490968884205D9AE484B
:1047E0000068AB490968B0FBF1F727B9AA4800682F
:1047F0000A21B0FBF1F749E1FCF75EFB8246FCF7CA
:10480000B5FAA649086000BF00BFFBF751FD009054
:1048100000BFFCF7C1FA00BFA1480068A1490860C9
:1048200000209F49086000BFFCF7D0FA00BF009845
:10483000FBF742FD00BF00BF9B480068994909682B
:10484000884248D9984800689849884205D242F27F
:10485000107003900120029023E09348006894496F
:10486000884205D24FF47A7003900A20029018E033
:104870008D4800688F49884203D2642003900290DB
:104880000FE0894800688C49884205D20A200390CD
:104890004FF47A70029004E00120039042F210700D
:1048A0000290814801680298B1FBF0F97D490398B4
:1048B00009684843B0FBF9F042F21071081A7F49C9
:1048C00008807F4800880988884207DA7B4800888A
:1048D0007B49088002E0002078490880FEF7A8FBA9
:1048E000002500BF00BFFBF7E3FC009000BFFCF712
:1048F00053FA00BF7348046800BFFCF767FA00BFB3
:104900000098FBF7D9FC00BF00BF2EE000BF00BF3E
:10491000FBF7CEFC009000BFFCF73EFA00BF54F856
:10492000980F6060002044F8980900BFFCF74EFA29
:1049300000BF0098FBF7C0FC00BF00BFD4F89C008C
:10494000054400BF00BFFBF7B3FC009000BFFCF7BD
:1049500023FA00BFD4F8B84000BFFCF737FA00BF15
:104960000098FBF7A9FC00BF00BF002CCED145B3D7
:104970004E48854205D242F2107005904FF0010B6F
:104980001BE04B48854205D24FF47A7005904FF0FA
:104990000A0B12E04748854203D264200590834603
:1049A0000BE04548854204D20A2005904FF47A7BFB
:1049B00003E00120059042F2107BB5FBFBF0049070
:1049C00003E0002005900120049000BF00BFFBF72A
:1049D0006FFC009000BFFCF7DFF900BF39480468A6
:1049E00000BFFCF7F3F900BF0098FBF765FC00BFC0
:1049F00000BF2FE0D4F89C00059948430499B0FB10
:104A0000F1F086B242F21070864200D90646A4F850
:104A10008860B4F88A00B04201DAA4F88A6001AB79
:104A200004F1A802111D2046FEF7B2FD00BF00BF31
:104A3000FBF73EFC009000BFFCF7AEF900BFD4F8D6
:104A4000B84000BFFCF7C2F900BF0098FBF734FC88
:104A500000BF00BF002CCDD11B480078012805D134
:104A600000201949087001A8FEF7BEF9FCF724FAE6
:104A7000A0EB0A0815480068404502D21348C0F868
:104A8000008001AA00213846FEF798FEB4E6000037
:104A900070D300089808002088D30008540800202C
:104AA0008C0800209408002090080020801A06003E
:104AB00000093D00005A62020084D71788080020D0
:104AC0008A080020A4080020860800209C080020F6
:104AD00010B58AB0044600201F4908601F490860CD
:104AE0001F4908601F4908701F4908701F48006867
:104AF00020B946F62B6020800AB010BD1C48006823
:104B00001C490968884203D246F62C602080F3E7EE
:104B1000194800781F2803D346F62A602080EBE767
:104B2000032000210591CDE90704069108461049AC
:104B30000968124A12680D4B1B68CDE90132CDE9B4
:104B400003100D48007800230D4A0EA10090124872
:104B5000FEF778FA00BFCFE78C0800209408002009
:104B600090080020980800208608002074D30008D0
:104B70007CD3000884D300086CD3000878D30008E5
:104B8000AD47000875432F4F532D494949205374B1
:104B90006174205461736B00207B002070B5044663
:104BA0000D4645B12A462146064800F05DFB03202C
:104BB00084F8360002E0022084F836002046FFF731
:104BC00003FD70BDBC0800202DE9F04104460D46F0
:104BD00000BF002694F8377094F8360008285FD29A
:104BE000DFE800F004191E1F1A1B20212046FFF7E2
:104BF000EBFC84F8375094F83700FFF7D1FB2C48D2
:104C00000068844203D12046FFF7A0FC02E0204662
:104C1000FFF7BCFC46E000BF00BF84F8375041E01E
:104C200000BF00BF00BF84F8375094F83400082854
:104C300031D2DFE800F0300431050B06073200BF47
:104C400000BF00BF2046FFF779FA27E02046FFF7B4
:104C500075FA206BC068466AAF4205DD96F83700EA
:104C6000A84217DC002615E096F83700B84211D1AB
:104C70003046FFF7ABF9054696F83800A84202DA4D
:104C800096F8380000E02846054696F83700A84216
:104C900000D1002602E000BF00BF00BF00BF01E05E
:104CA000BDE8F08100BF3446002C92D100BFF7E789
:104CB000E40800200021C0F8B4100949096819B9B6
:104CC0000021C0F8B81007E005490968C0F8B8101D
:104CD00003490968C1F8B400014908607047000041
:104CE000A4080020D0F8B420D0F8B8104AB90D4B71
:104CF000196011B10023C1F8B4300023C0F8B830F6
:104D00000FE029B90023C2F8B830C0F8B43008E089
:104D1000C2F8B810C1F8B4200023C0F8B830C0F809
:104D2000B4307047A40800200021044A1160044AEE
:104D30001180044A1160018070470000A40800201F
:104D4000A8080020A008002070B5044600202060BC
:104D5000A0606060E06020616061A061E06128A007
:104D6000206200206062A062E0622063A4F8460036
:104D7000A064A065A4F85C00002104F16000FFF7C6
:104D80004FF8002020676067E067A4F88400C4F84B
:104D90008000002506E0002104F1780040F825108D
:104DA000681CC5B2002DF6D000203434A061E06646
:104DB0002067E06084F85200A06760672082E061AD
:104DC0002062A4F85400A4F85600A065E065FCF742
:104DD00073F80646266600206066E0672070607003
:104DE000A0702020E07020710020A060C4F8800036
:104DF000C4F8840004A0C4F88800343C70BD0000EE
:104E00003F5461736B0000002000000070B5044641
:104E10000D46002600BF00BFFBF74AFA064600BF5A
:104E2000FBF7BAFF00BF0020288094F8360008285E
:104E300068D2DFE800F004050607142B3F5300BFDB
:104E400000BF00BF00BFFBF7C1FF00BF3046FBF74C
:104E500033FA00BF00BF47F2531028805FE014F818
:104E6000860F401E207014F8860928B9002084F8A7
:104E700036002046FFF754FB00BFFBF7A7FF00BF3B
:104E80003046FBF719FA00BF00BF48E014F8860F60
:104E9000401E207014F8860910B9012084F83600ED
:104EA00000BFFBF793FF00BF3046FBF705FA00BFDA
:104EB00000BF34E014F8860F401E207014F88609F5
:104EC00010B9022084F8360000BFFBF77FFF00BF57
:104ED0003046FBF7F1F900BF00BF20E014F8860F61
:104EE000401E207014F8860910B9032084F836009B
:104EF00000BFFBF76BFF00BF3046FBF7DDF900BFDB
:104F000000BF0CE000BFFBF761FF00BF3046FBF7BE
:104F1000D3F900BF00BF46F62D60288070BD00BFEA
:104F2000FDF752FD00BFF9E708B504480068FEF739
:104F30002DFA69460020FEF733F908BDE408002089
:104F40002DE9F8430446884617461D464FF00009F0
:104F500000BF00BFFBF7ACF9814600BFFBF71CFFA9
:104F600000BF0CB971480468A7640020288094F839
:104F70003600082878D2DFE800F004055859060703
:104F80005A5B00BF00BF00BF0420012804D00228E4
:104F900015D0042839D126E0E06CFF280ED100BFDF
:104FA000FBF714FF00BF4846FBF786F900BF00BFC0
:104FB00046F6C55028800020BDE8F88326E04FF66D
:104FC000FF71E06C88420DD100BFFBF7FFFE00BF10
:104FD0004846FBF771F900BF00BF46F6C550288070
:104FE0000020E9E712E0E06C401C68B900BFFBF765
:104FF000EDFE00BF4846FBF75FF900BF00BF46F675
:10500000C55028800020D7E700E000BF00BFE06C5B
:10501000401CE064E66C00BFFBF7D8FE00BF4846CA
:10502000FBF74AF900BF00BF7DE000BF00BF00BF33
:1050300094F83400072818D100231A462146184650
:105040000097FFF70BF9E66C00BFFBF7BFFE00BF50
:105050004846FBF731F900BF00BF08F400400028C4
:1050600052D1FDF7B1FC4FE04FE00420012804D0FD
:10507000022814D0042838D125E0E06CFF280DD197
:1050800000BFFBF7A3FE00BF4846FBF715F900BFC2
:1050900000BF46F6C550288000208DE726E04FF679
:1050A000FF71E06C88420DD100BFFBF78FFE00BF9F
:1050B0004846FBF701F900BF00BF46F6C5502880FF
:1050C000002079E712E0E06C401C68B900BFFBF7F4
:1050D0007DFE00BF4846FBF7EFF800BF00BF46F675
:1050E000C5502880002067E700E000BF00BFE06CEB
:1050F000401CE064E66C00BFFBF768FE00BF48465A
:10510000FBF7DAF800BF00BF0DE000BFFBF75EFE63
:1051100000BF4846FBF7D0F800BF00BF46F62D6041
:105120002880002600BF00BF304645E7E408002085
:1051300070B504460D46002600BF00BFFBF7B8F867
:10514000064600BFFBF728FE00BF0CB944480468C0
:1051500043480068844210D14248007800280CDDA2
:1051600000BFFBF733FE00BF3046FBF7A5F800BFDA
:1051700000BF46F66350288070BD0020288094F858
:10518000360008285AD2DFE800F0041727374748CE
:10519000494A042084F83600012084F8860020461D
:1051A000FFF712FA00BFFBF711FE00BF3046FBF716
:1051B00083F800BF00BF4EE0052084F836000120D0
:1051C00084F8860000BFFBF701FE00BF3046FBF706
:1051D00073F800BF00BF3EE0062084F836000120CF
:1051E00084F8860000BFFBF7F1FD00BF3046FBF7F7
:1051F00063F800BF00BF2EE0072084F836000120CE
:1052000084F8860000BFFBF7E1FD00BF3046FBF7E6
:1052100053F800BF00BF1EE000BF00BF00BF94F8FE
:105220008600401C84F8860000BFFBF7CFFD00BF5E
:105230003046FBF741F800BF00BF0CE000BFFBF7B2
:10524000C5FD00BF3046FBF737F800BF00BF46F68C
:105250002D60288090E700BFFDF7B6FB00BF8BE70D
:10526000E40800207E08002070B51546066846B99F
:105270000D6500264E618E61C86101600126868041
:1052800033E0046802682B4624E0166D9E421DD36D
:1052900096696EB90B6500268E614A61C861166D0C
:1052A000F61A1665916101608688761C86800CE08E
:1052B00094690B658C614A61C861166DF61A1665B2
:1052C000916161618688761C868070BD166D9B1B1E
:1052D00014465269002AD8D10B658C6100264E61B4
:1052E000C86161618688761C868000BFEDE700009A
:1052F0002DE9F04104460D4690461F46B8F1040FD3
:105300000ED1284800682E1A16F5803F01D8002ECD
:105310003CD10020206547F27E203880BDE8F08136
:10532000B8F1080F29D11F49606D0968081AA84211
:1053300005D92E461B4800682844606526E01949B7
:10534000606D0968081A2E1A16F5803F00D886B9D4
:105350001449606D0968081AB0FBF5F005FB0050B0
:10536000616D084460650020206547F27E2038802A
:10537000D4E7606D2844606508E00DB12E4605E075
:105380000020206547F27E203880C7E7012084F89E
:105390003600324621460448FFF766FF0020388079
:1053A00000BFBBE7AC080020B408002030B5C269DC
:1053B00083694169ABB929B90024146094800465FC
:1053C000C4611EE000248C610C6D056D2C440C65DD
:1053D00011609488641E9480002444610465C46153
:1053E0000FE0596121B18B610C6D056D2C440C658A
:1053F000002484619488641E9480002444610465C0
:10540000C46130BD2DE9F0474FF0000900BF00BF77
:10541000FAF74EFF814600BFFBF7BEFC00BFFBF76B
:105420004BFD064600271E4D2C683CB3206D401EE8
:1054300020651FE0781C87B294F83600012806D159
:10544000002084F836002046FFF76AF806E094F85A
:105450003600052802D1042084F8360060692860EF
:105460002C6814B90020A88007E0A888401EA880F6
:105470000020A061206D0028DCD000BFEF80FBF78A
:105480001BFDA0EB060800BFFBF7A0FC00BF4846D1
:10549000FAF712FF00BF00BF4046BDE8F0870000EA
:1054A000B40800202DE9F05F4FF0000B00BF00BFF3
:1054B000FAF7FEFE834600BFFBF76EFC00BFFBF76A
:1054C000FBFC07464FF000083C4D2C68002C63D0D5
:1054D000206D401E20655BE008F101001FFA80F896
:1054E000002694F83400042802D1206BC068466A74
:1054F0000020A065A4F85C00FBF7DEFCA064204659
:10550000FEF771FE94F83600032806D12046FFF717
:1055100007F8002084F8360006E094F836000728E3
:1055200002D1042084F83600032084F835000020DE
:1055300084F8340006B396F8370096F8381088429D
:105540001AD096F8370094F83710884214D13046B4
:10555000FEF73CFD814696F83800484502DA96F899
:10556000380000E04846814696F83700484503D0A9
:1055700049463046FFF728FB606928602C6814B95B
:105580000020A88007E0A888401EA8800020A06115
:10559000206D0028A0D000BFA5F80680FBF78CFC8A
:1055A000A0EB070A00BFFBF711FC00BF5846FAF753
:1055B00083FE00BF00BF5046BDE8F09FBC0800203E
:1055C00008B500272CE06B46002211461046FDF777
:1055D000E9FEBDF8000018BB00BF00BFFAF768FE87
:1055E000074600BFFBF7D8FB00BF0E480068401C11
:1055F0000C49086000BFFBF7E9FB00BF3846FAF72B
:105600005BFE00BF00BFFFF7FDFE0646FFF74AFF47
:105610000546741904480068A04201D2024804609B
:10562000D1E70000AC080020B008002010B58AB017
:10563000044600202049086020490860204908608D
:105640001E498880C8801E498880C8801D4800681F
:1056500020B947F2122020800AB010BD1A48006815
:105660001A490968884203D247F213202080F3E7E1
:10567000174800781F2803D347F211202080EBE75A
:105680000B2000210591CDE90704069108460E493B
:105690000A68104909680B4B1B68CDE90131CDE957
:1056A00003200B48007800230B4A0CA100901048FF
:1056B000FDF7C8FC00BFCFE7AC080020B40800200D
:1056C000BC08002090D3000898D3000884D30008B9
:1056D0008CD3000894D30008C155000875432F4FA0
:1056E000532D494949205469636B205461736B0001
:1056F000E07B002010B58AB0044600202F490860E6
:105700002F4908602F4908802F48006840B12F4872
:1057100000682D490968B0FBF1F02D49086006E0EA
:105720002A4800680A21B0FBF1F02949086028489E
:105730000068284908600020274908602749086058
:10574000224627A12A48FCF72FFE208808B10AB07C
:1057500010BD2848006818B947F247302080F6E7A6
:105760002548006825490968884203D247F2483035
:105770002080ECE7224800781F2803D347F2463008
:105780002080E4E70B20002105910A46CDE90704BB
:105790000691194800681B490968164B1B68CDE93A
:1057A0000131CDE90302164800780023164A17A1FB
:1057B00000901C48FDF746FC00BFC8E7C408002065
:1057C000CC080020C8080020A4D3000888D3000813
:1057D000DC080020E0080020D8080020D4080020C1
:1057E0004F5320546D72204D757465780000000091
:1057F000A07C0020A8D30008B0D3000884D3000800
:10580000A0D30008ACD300084158000875432F4FBF
:10581000532D4949492054696D6572205461736B59
:1058200000000000D07C00200EB502A801AB0022D1
:10583000114600900148FCF7EDFD0EBDA07C002054
:105840001CB53FE001AB6A4600210846FDF7AAFD02
:10585000FFF7EAFFFBF730FB06461B480068401CD9
:1058600019490860194804681FE001A8FDF7FCF811
:10587000D4F81080A069401EA061A06980B9A08CF6
:10588000022802D1206AA06105E0204600F022F83B
:10589000032084F82600A56815B12046E168A847D2
:1058A000444601A8FDF712F900BF002CDDD1FBF73B
:1058B00003FB871B06480068B84201D20448076012
:1058C00000F02AF8BEE70000D8080020CC0800202D
:1058D000D408002010B50E4B1B68834206D1016925
:1058E0000B4B196039B100234B6104E04169026937
:1058F0000A6102B15161012380F82630002303615F
:105900004361044B1B885B1E024C238010BD0000CA
:10591000CC080020C808002008B56A4600210248CB
:10592000FCF76EFE08BD0000A07C002029B1064AED
:1059300012680243044B1A6004E0034A126882436F
:10594000014B1A60704700003038024029B1064A06
:1059500012680243044B1A6004E0034A126882434F
:10596000014B1A60704700001038024029B1064A06
:1059700012680243044B1A6004E0034A126882432F
:10598000014B1A60704700004438024029B1064AB2
:1059900012680243044B1A6004E0034A126882430F
:1059A000014B1A607047000024380240F0B5002116
:1059B00000220024022500260223324F3F6807F010
:1059C0000C0121B1042905D0082937D105E02E4F5B
:1059D000076036E02D4F076033E02A4F3F1F3F68D6
:1059E000C7F38056274F3F1F3F6807F03F036EB154
:1059F000264FB7FBF3F7DFF88CC0ACF1040CDCF8F2
:105A000000C0CCF3881C07FB0CF40CE01E4FB7FB66
:105A1000F3F7DFF870C0ACF1040CDCF800C0CCF395
:105A2000881C07FB0CF4174F3F1F3F68C7F3014763
:105A30007F1C7D00B4FBF5F7076002E0124F0760A2
:105A400000BF00BF0F4F3F6807F0F0010909104F7A
:105A50007A5C0768D74047600A4F3F6807F4E05117
:105A6000890A0B4F7A5C4768D7408760054F3F68CB
:105A700007F46041490B064F7A5C4768D740C7601E
:105A8000F0BD0000083802400024F40000127A0043
:105A9000F90700201CB5012140F2FF10FFF746FF77
:105AA00001208DF8040000208DF8060048F25070A7
:105AB000009003208DF8050000208DF8070069464E
:105AC0001F48FCF73EF84CF2DC30009069461D4858
:105AD000FCF737F84FF4FE50009069461A48FCF77F
